{
  "contractName": "Tip",
  "abi": [
    {
      "inputs": [],
      "stateMutability": "nonpayable",
      "type": "constructor"
    },
    {
      "anonymous": false,
      "inputs": [],
      "name": "GetReward",
      "type": "event"
    },
    {
      "anonymous": false,
      "inputs": [],
      "name": "Participate",
      "type": "event"
    },
    {
      "anonymous": false,
      "inputs": [],
      "name": "Start",
      "type": "event"
    },
    {
      "anonymous": false,
      "inputs": [],
      "name": "Withdraw",
      "type": "event"
    },
    {
      "inputs": [],
      "name": "d",
      "outputs": [
        {
          "internalType": "string",
          "name": "foo",
          "type": "string"
        },
        {
          "internalType": "address",
          "name": "ctrt",
          "type": "address"
        }
      ],
      "stateMutability": "view",
      "type": "function"
    },
    {
      "inputs": [],
      "name": "defaultDuration",
      "outputs": [
        {
          "internalType": "uint256",
          "name": "",
          "type": "uint256"
        }
      ],
      "stateMutability": "view",
      "type": "function"
    },
    {
      "inputs": [],
      "name": "defaultTimeLimit",
      "outputs": [
        {
          "internalType": "uint256",
          "name": "",
          "type": "uint256"
        }
      ],
      "stateMutability": "view",
      "type": "function"
    },
    {
      "inputs": [],
      "name": "donation",
      "outputs": [
        {
          "internalType": "uint256",
          "name": "",
          "type": "uint256"
        }
      ],
      "stateMutability": "view",
      "type": "function"
    },
    {
      "inputs": [],
      "name": "goal",
      "outputs": [
        {
          "internalType": "uint256",
          "name": "",
          "type": "uint256"
        }
      ],
      "stateMutability": "view",
      "type": "function"
    },
    {
      "inputs": [],
      "name": "owner",
      "outputs": [
        {
          "internalType": "address",
          "name": "",
          "type": "address"
        }
      ],
      "stateMutability": "view",
      "type": "function"
    },
    {
      "inputs": [
        {
          "internalType": "address",
          "name": "",
          "type": "address"
        }
      ],
      "name": "stakes",
      "outputs": [
        {
          "internalType": "uint256",
          "name": "",
          "type": "uint256"
        }
      ],
      "stateMutability": "view",
      "type": "function"
    },
    {
      "inputs": [],
      "name": "stat",
      "outputs": [
        {
          "internalType": "bool",
          "name": "isActive",
          "type": "bool"
        },
        {
          "internalType": "uint256",
          "name": "balance",
          "type": "uint256"
        },
        {
          "internalType": "address",
          "name": "loser",
          "type": "address"
        },
        {
          "internalType": "address",
          "name": "winner",
          "type": "address"
        },
        {
          "internalType": "bool",
          "name": "isWinnerTakesAll",
          "type": "bool"
        },
        {
          "internalType": "uint256",
          "name": "largestStake",
          "type": "uint256"
        },
        {
          "internalType": "uint256",
          "name": "timeLimit",
          "type": "uint256"
        },
        {
          "internalType": "uint256",
          "name": "downTime",
          "type": "uint256"
        }
      ],
      "stateMutability": "view",
      "type": "function"
    },
    {
      "inputs": [],
      "name": "participate",
      "outputs": [],
      "stateMutability": "payable",
      "type": "function"
    },
    {
      "inputs": [],
      "name": "getReward",
      "outputs": [],
      "stateMutability": "nonpayable",
      "type": "function"
    },
    {
      "inputs": [],
      "name": "start",
      "outputs": [],
      "stateMutability": "payable",
      "type": "function"
    },
    {
      "inputs": [],
      "name": "withdraw",
      "outputs": [],
      "stateMutability": "nonpayable",
      "type": "function"
    }
  ],
  "bytecode": "0x6101006040523480156200001257600080fd5b503373ffffffffffffffffffffffffffffffffffffffff1660808173ffffffffffffffffffffffffffffffffffffffff1681525050670de0b6b3a764000060a08181525050603c60c08181525050603c60e0818152505062000079620001a960201b60201c565b60008060000160006101000a81548160ff021916908315150217905550426000600601819055506000600b819055506040518060400160405280600b81526020017f48454c4c4f20574f524c4400000000000000000000000000000000000000000081525060076000019080519060200190620000f892919062000264565b506007600101339080600181540180825580915050600190039060005260206000200160009091909190916101000a81548173ffffffffffffffffffffffffffffffffffffffff021916908373ffffffffffffffffffffffffffffffffffffffff16021790555030600760020160006101000a81548173ffffffffffffffffffffffffffffffffffffffff021916908373ffffffffffffffffffffffffffffffffffffffff16021790555062000378565b6000806001018190555060008060020160006101000a81548173ffffffffffffffffffffffffffffffffffffffff021916908373ffffffffffffffffffffffffffffffffffffffff16021790555060008060030160006101000a81548173ffffffffffffffffffffffffffffffffffffffff021916908373ffffffffffffffffffffffffffffffffffffffff16021790555060008060030160146101000a81548160ff02191690831515021790555060008060040181905550565b828054620002729062000343565b90600052602060002090601f016020900481019282620002965760008555620002e2565b82601f10620002b157805160ff1916838001178555620002e2565b82800160010185558215620002e2579182015b82811115620002e1578251825591602001919060010190620002c4565b5b509050620002f19190620002f5565b5090565b5b8082111562000310576000816000905550600101620002f6565b5090565b7f4e487b7100000000000000000000000000000000000000000000000000000000600052602260045260246000fd5b600060028204905060018216806200035c57607f821691505b60208210810362000372576200037162000314565b5b50919050565b60805160a05160c05160e051611fa3620003e36000396000818161030a01528181610edb01526110790152600081816108e40152610ad801526000818161090801528181610c2f01528181610e4e0152610fd701526000818161032e01526109e60152611fa36000f3fe6080604052600436106100a75760003560e01c80634019388311610064578063401938831461019f5780638a054ac2146101ca5780638da5cb5b146101f65780638edeb15d14610221578063be9a65551461024c578063d11711a214610256576100a7565b80630435a745146100ac57806316934fc4146100de5780632af7e2ea1461011b5780633ccfd60b146101465780633d18b9121461015d5780633db494cb14610174575b600080fd5b3480156100b857600080fd5b506100c1610260565b6040516100d59897969594939291906113f8565b60405180910390f35b3480156100ea57600080fd5b50610105600480360381019061010091906114a7565b6102f0565b60405161011291906114d4565b60405180910390f35b34801561012757600080fd5b50610130610308565b60405161013d91906114d4565b60405180910390f35b34801561015257600080fd5b5061015b61032c565b005b34801561016957600080fd5b5061017261043f565b005b34801561018057600080fd5b506101896108e2565b60405161019691906114d4565b60405180910390f35b3480156101ab57600080fd5b506101b4610906565b6040516101c191906114d4565b60405180910390f35b3480156101d657600080fd5b506101df61092a565b6040516101ed929190611588565b60405180910390f35b34801561020257600080fd5b5061020b6109e4565b60405161021891906115b8565b60405180910390f35b34801561022d57600080fd5b50610236610a08565b60405161024391906114d4565b60405180910390f35b610254610a0e565b005b61025e610b52565b005b60008060000160009054906101000a900460ff16908060010154908060020160009054906101000a900473ffffffffffffffffffffffffffffffffffffffff16908060030160009054906101000a900473ffffffffffffffffffffffffffffffffffffffff16908060030160149054906101000a900460ff16908060040154908060050154908060060154905088565b600a6020528060005260406000206000915090505481565b7f000000000000000000000000000000000000000000000000000000000000000081565b7f000000000000000000000000000000000000000000000000000000000000000073ffffffffffffffffffffffffffffffffffffffff163373ffffffffffffffffffffffffffffffffffffffff16146103ba576040517f08c379a00000000000000000000000000000000000000000000000000000000081526004016103b19061161f565b60405180910390fd5b6000600b5490506000600b819055503373ffffffffffffffffffffffffffffffffffffffff166108fc829081150290604051600060405180830381858888f1935050505015801561040f573d6000803e3d6000fd5b507f57ea89b6814fccbbe8728fa89cc8e6b5477e559b2a34e946e105b11112e94b5860405160405180910390a150565b6000800160009054906101000a900460ff161561045f5761045e610f3d565b5b6000800160009054906101000a900460ff16156104b1576040517f08c379a00000000000000000000000000000000000000000000000000000000081526004016104a89061168b565b60405180910390fd5b60006006015442106104f8576040517f08c379a00000000000000000000000000000000000000000000000000000000081526004016104ef9061171d565b60405180910390fd5b6000600a60003373ffffffffffffffffffffffffffffffffffffffff1673ffffffffffffffffffffffffffffffffffffffff168152602001908152602001600020541161057a576040517f08c379a0000000000000000000000000000000000000000000000000000000008152600401610571906117af565b60405180910390fd5b60008060030160149054906101000a900460ff161561068b57600060030160009054906101000a900473ffffffffffffffffffffffffffffffffffffffff1673ffffffffffffffffffffffffffffffffffffffff163373ffffffffffffffffffffffffffffffffffffffff1614610626576040517f08c379a000000000000000000000000000000000000000000000000000000000815260040161061d9061181b565b60405180910390fd5b61063060016110ae565b60006001015490506000806001018190555060008060030160006101000a81548173ffffffffffffffffffffffffffffffffffffffff021916908373ffffffffffffffffffffffffffffffffffffffff160217905550610829565b600060020160009054906101000a900473ffffffffffffffffffffffffffffffffffffffff1673ffffffffffffffffffffffffffffffffffffffff163373ffffffffffffffffffffffffffffffffffffffff160361071e576040517f08c379a000000000000000000000000000000000000000000000000000000000815260040161071590611887565b60405180910390fd5b600060010154600a60003373ffffffffffffffffffffffffffffffffffffffff1673ffffffffffffffffffffffffffffffffffffffff1681526020019081526020016000205461076e9190611905565b600a60008060020160009054906101000a900473ffffffffffffffffffffffffffffffffffffffff1673ffffffffffffffffffffffffffffffffffffffff1673ffffffffffffffffffffffffffffffffffffffff168152602001908152602001600020546107dc9190611936565b600a60003373ffffffffffffffffffffffffffffffffffffffff1673ffffffffffffffffffffffffffffffffffffffff168152602001908152602001600020546108269190611990565b90505b600a60003373ffffffffffffffffffffffffffffffffffffffff1673ffffffffffffffffffffffffffffffffffffffff168152602001908152602001600020600090553373ffffffffffffffffffffffffffffffffffffffff166108fc829081150290604051600060405180830381858888f193505050501580156108b2573d6000803e3d6000fd5b507f30f3363cf7e01dd67fec9a0b1544fbde4d5ae360a5c594485c83124f32bd10ec60405160405180910390a150565b7f000000000000000000000000000000000000000000000000000000000000000081565b7f000000000000000000000000000000000000000000000000000000000000000081565b600780600001805461093b90611a15565b80601f016020809104026020016040519081016040528092919081815260200182805461096790611a15565b80156109b45780601f10610989576101008083540402835291602001916109b4565b820191906000526020600020905b81548152906001019060200180831161099757829003601f168201915b5050505050908060020160009054906101000a900473ffffffffffffffffffffffffffffffffffffffff16905082565b7f000000000000000000000000000000000000000000000000000000000000000081565b600b5481565b6000800160009054906101000a900460ff1615610a60576040517f08c379a0000000000000000000000000000000000000000000000000000000008152600401610a5790611ab8565b60405180910390fd5b6000600601544211610aa7576040517f08c379a0000000000000000000000000000000000000000000000000000000008152600401610a9e90611b4a565b60405180910390fd5b610ab160006110ae565b610ab961128a565b60016000800160006101000a81548160ff0219169083151502179055507f000000000000000000000000000000000000000000000000000000000000000042610b029190611990565b60006005018190555034600b6000828254610b1d9190611990565b925050819055507f1b55ba3aa851a46be3b365aee5b5c140edd620d578922f3e8466d2cbd96f954b60405160405180910390a1565b60003411610b95576040517f08c379a0000000000000000000000000000000000000000000000000000000008152600401610b8c90611bb6565b60405180910390fd5b6000800160009054906101000a900460ff16610be6576040517f08c379a0000000000000000000000000000000000000000000000000000000008152600401610bdd90611c22565b60405180910390fd5b6000600501544210610c2d576040517f08c379a0000000000000000000000000000000000000000000000000000000008152600401610c2490611cb4565b60405180910390fd5b7f000000000000000000000000000000000000000000000000000000000000000060006001015410610c94576040517f08c379a0000000000000000000000000000000000000000000000000000000008152600401610c8b90611d46565b60405180910390fd5b6000600a60003373ffffffffffffffffffffffffffffffffffffffff1673ffffffffffffffffffffffffffffffffffffffff1681526020019081526020016000205403610d3f57600c339080600181540180825580915050600190039060005260206000200160009091909190916101000a81548173ffffffffffffffffffffffffffffffffffffffff021916908373ffffffffffffffffffffffffffffffffffffffff1602179055505b34600a60003373ffffffffffffffffffffffffffffffffffffffff1673ffffffffffffffffffffffffffffffffffffffff1681526020019081526020016000206000828254610d8e9190611990565b925050819055503460006001016000828254610daa9190611990565b92505081905550600060040154600a60003373ffffffffffffffffffffffffffffffffffffffff1673ffffffffffffffffffffffffffffffffffffffff168152602001908152602001600020541115610e4c5733600060030160006101000a81548173ffffffffffffffffffffffffffffffffffffffff021916908373ffffffffffffffffffffffffffffffffffffffff160217905550346000600401819055505b7f000000000000000000000000000000000000000000000000000000000000000060006001015410610f0f5733600060020160006101000a81548173ffffffffffffffffffffffffffffffffffffffff021916908373ffffffffffffffffffffffffffffffffffffffff16021790555060008060000160006101000a81548160ff0219169083151502179055507f000000000000000000000000000000000000000000000000000000000000000042610f059190611990565b6000600601819055505b7f9b883b8db722ca7c02b6a9c09c1f42ac2b1296a688f80d5caf30bee882bf9d0160405160405180910390a1565b6000800160009054906101000a900460ff16610f8e576040517f08c379a0000000000000000000000000000000000000000000000000000000008152600401610f8590611db2565b60405180910390fd5b6000600501544211610fd5576040517f08c379a0000000000000000000000000000000000000000000000000000000008152600401610fcc90611e1e565b60405180910390fd5b7f00000000000000000000000000000000000000000000000000000000000000006000600101541061103c576040517f08c379a000000000000000000000000000000000000000000000000000000000815260040161103390611ed6565b60405180910390fd5b60008060000160006101000a81548160ff0219169083151502179055506001600060030160146101000a81548160ff0219169083151502179055507f0000000000000000000000000000000000000000000000000000000000000000426110a39190611990565b600060060181905550565b60005b600c805490508110156112785781801561114857506000600a6000600c84815481106110e0576110df611ef6565b5b9060005260206000200160009054906101000a900473ffffffffffffffffffffffffffffffffffffffff1673ffffffffffffffffffffffffffffffffffffffff1673ffffffffffffffffffffffffffffffffffffffff16815260200190815260200160002054115b156111e457600a6000600c838154811061116557611164611ef6565b5b9060005260206000200160009054906101000a900473ffffffffffffffffffffffffffffffffffffffff1673ffffffffffffffffffffffffffffffffffffffff1673ffffffffffffffffffffffffffffffffffffffff16815260200190815260200160002054600b60008282546111dc9190611990565b925050819055505b600a6000600c83815481106111fc576111fb611ef6565b5b9060005260206000200160009054906101000a900473ffffffffffffffffffffffffffffffffffffffff1673ffffffffffffffffffffffffffffffffffffffff1673ffffffffffffffffffffffffffffffffffffffff16815260200190815260200160002060009055808061127090611f25565b9150506110b1565b50600c60006112879190611345565b50565b6000806001018190555060008060020160006101000a81548173ffffffffffffffffffffffffffffffffffffffff021916908373ffffffffffffffffffffffffffffffffffffffff16021790555060008060030160006101000a81548173ffffffffffffffffffffffffffffffffffffffff021916908373ffffffffffffffffffffffffffffffffffffffff16021790555060008060030160146101000a81548160ff02191690831515021790555060008060040181905550565b50805460008255906000526020600020908101906113639190611366565b50565b5b8082111561137f576000816000905550600101611367565b5090565b60008115159050919050565b61139881611383565b82525050565b6000819050919050565b6113b18161139e565b82525050565b600073ffffffffffffffffffffffffffffffffffffffff82169050919050565b60006113e2826113b7565b9050919050565b6113f2816113d7565b82525050565b60006101008201905061140e600083018b61138f565b61141b602083018a6113a8565b61142860408301896113e9565b61143560608301886113e9565b611442608083018761138f565b61144f60a08301866113a8565b61145c60c08301856113a8565b61146960e08301846113a8565b9998505050505050505050565b600080fd5b611484816113d7565b811461148f57600080fd5b50565b6000813590506114a18161147b565b92915050565b6000602082840312156114bd576114bc611476565b5b60006114cb84828501611492565b91505092915050565b60006020820190506114e960008301846113a8565b92915050565b600081519050919050565b600082825260208201905092915050565b60005b8381101561152957808201518184015260208101905061150e565b83811115611538576000848401525b50505050565b6000601f19601f8301169050919050565b600061155a826114ef565b61156481856114fa565b935061157481856020860161150b565b61157d8161153e565b840191505092915050565b600060408201905081810360008301526115a2818561154f565b90506115b160208301846113e9565b9392505050565b60006020820190506115cd60008301846113e9565b92915050565b7f596f7520617265206e6f74206d7920476f7379756a696e2d73616d612e000000600082015250565b6000611609601d836114fa565b9150611614826115d3565b602082019050919050565b60006020820190508181036000830152611638816115fc565b9050919050565b7f47616d65206973207374696c6c20676f696e672e000000000000000000000000600082015250565b60006116756014836114fa565b91506116808261163f565b602082019050919050565b600060208201905081810360008301526116a481611668565b9050919050565b7f596f752063616e2067657420726577617264207768696c652073686f77696e6760008201527f20726573756c742e000000000000000000000000000000000000000000000000602082015250565b60006117076028836114fa565b9150611712826116ab565b604082019050919050565b60006020820190508181036000830152611736816116fa565b9050919050565b7f596f75206861766520746f207374616b6520696620796f752077616e6e61206760008201527f6574206c6f6f742e000000000000000000000000000000000000000000000000602082015250565b60006117996028836114fa565b91506117a48261173d565b604082019050919050565b600060208201905081810360008301526117c88161178c565b9050919050565b7f5468652077696e6e6572206f6e6c792072656365697665206c6f6f742e000000600082015250565b6000611805601d836114fa565b9150611810826117cf565b602082019050919050565b60006020820190508181036000830152611834816117f8565b9050919050565b7f4c6f7365722063616e6e6f742072656365697665206c6f6f742e000000000000600082015250565b6000611871601a836114fa565b915061187c8261183b565b602082019050919050565b600060208201905081810360008301526118a081611864565b9050919050565b7f4e487b7100000000000000000000000000000000000000000000000000000000600052601260045260246000fd5b7f4e487b7100000000000000000000000000000000000000000000000000000000600052601160045260246000fd5b60006119108261139e565b915061191b8361139e565b92508261192b5761192a6118a7565b5b828204905092915050565b60006119418261139e565b915061194c8361139e565b9250817fffffffffffffffffffffffffffffffffffffffffffffffffffffffffffffffff0483118215151615611985576119846118d6565b5b828202905092915050565b600061199b8261139e565b91506119a68361139e565b9250827fffffffffffffffffffffffffffffffffffffffffffffffffffffffffffffffff038211156119db576119da6118d6565b5b828201905092915050565b7f4e487b7100000000000000000000000000000000000000000000000000000000600052602260045260246000fd5b60006002820490506001821680611a2d57607f821691505b602082108103611a4057611a3f6119e6565b5b50919050565b7f596f75206861766520746f207761697420756e74696c20746869732067616d6560008201527f20656e64732e0000000000000000000000000000000000000000000000000000602082015250565b6000611aa26026836114fa565b9150611aad82611a46565b604082019050919050565b60006020820190508181036000830152611ad181611a95565b9050919050565b7f596f75206861766520746f207761697420636f75706c65206f66206d696e757460008201527f657320746f2073746172742067616d652e000000000000000000000000000000602082015250565b6000611b346031836114fa565b9150611b3f82611ad8565b604082019050919050565b60006020820190508181036000830152611b6381611b27565b9050919050565b7f50617274696369706174696f6e20666565206973206e6f7420656e6f7567682e600082015250565b6000611ba06020836114fa565b9150611bab82611b6a565b602082019050919050565b60006020820190508181036000830152611bcf81611b93565b9050919050565b7f5374617274207468652067616d65206265666f726520796f75206a6f696e2e00600082015250565b6000611c0c601f836114fa565b9150611c1782611bd6565b602082019050919050565b60006020820190508181036000830152611c3b81611bff565b9050919050565b7f4c6f6f6b73206c696b652067616d6520697320616c7265616479206f7665722060008201527f6e6f772e00000000000000000000000000000000000000000000000000000000602082015250565b6000611c9e6024836114fa565b9150611ca982611c42565b604082019050919050565b60006020820190508181036000830152611ccd81611c91565b9050919050565b7f62616c616e63652068617320616c72656164792072656163686564207468652060008201527f676f616c2e000000000000000000000000000000000000000000000000000000602082015250565b6000611d306025836114fa565b9150611d3b82611cd4565b604082019050919050565b60006020820190508181036000830152611d5f81611d23565b9050919050565b7f47616d65206973206e6f74206163746976652e00000000000000000000000000600082015250565b6000611d9c6013836114fa565b9150611da782611d66565b602082019050919050565b60006020820190508181036000830152611dcb81611d8f565b9050919050565b7f47616d65206973206e6f74206f766572207965742e0000000000000000000000600082015250565b6000611e086015836114fa565b9150611e1382611dd2565b602082019050919050565b60006020820190508181036000830152611e3781611dfb565b9050919050565b7f47616d652073686f756c6420626520656e64206173206c6f736572206f75742e60008201527f2043616c6c2074686520646576656c6f70657220746f2066697820746869732060208201527f70726f626c656d2e000000000000000000000000000000000000000000000000604082015250565b6000611ec06048836114fa565b9150611ecb82611e3e565b606082019050919050565b60006020820190508181036000830152611eef81611eb3565b9050919050565b7f4e487b7100000000000000000000000000000000000000000000000000000000600052603260045260246000fd5b6000611f308261139e565b91507fffffffffffffffffffffffffffffffffffffffffffffffffffffffffffffffff8203611f6257611f616118d6565b5b60018201905091905056fea26469706673582212203fe5393e77e42eb0ba09c0441780a8886054ed3e46207641b9fe74ffd694ba0164736f6c634300080d0033",
  "immutableReferences": {
    "41": [
      {
        "length": 32,
        "start": 814
      },
      {
        "length": 32,
        "start": 2534
      }
    ],
    "45": [
      {
        "length": 32,
        "start": 2312
      },
      {
        "length": 32,
        "start": 3119
      },
      {
        "length": 32,
        "start": 3662
      },
      {
        "length": 32,
        "start": 4055
      }
    ],
    "49": [
      {
        "length": 32,
        "start": 2276
      },
      {
        "length": 32,
        "start": 2776
      }
    ],
    "53": [
      {
        "length": 32,
        "start": 778
      },
      {
        "length": 32,
        "start": 3803
      },
      {
        "length": 32,
        "start": 4217
      }
    ]
  },
  "source": "// SPDX-License-Identifier: UNLISENCED\r\npragma solidity ^0.8.13;\r\n\r\nimport './interfaces/ITip.sol';\r\n\r\ncontract Tip is ITip {\r\n    /// @inheritdoc ITipImmutables\r\n    address public immutable override owner;\r\n    /// @inheritdoc ITipImmutables\r\n    uint256 public immutable override goal;\r\n    /// @inheritdoc ITipImmutables\r\n    uint public immutable override defaultTimeLimit;\r\n    /// @inheritdoc ITipImmutables\r\n    uint public immutable override defaultDuration;\r\n\r\n    struct Stat {\r\n        // the game state\r\n        bool isActive;\r\n        // the balance of this game\r\n        uint256 balance;\r\n        // the loser address\r\n        address loser;\r\n        // the winner address\r\n        address winner;\r\n        // the win types\r\n        bool isWinnerTakesAll;\r\n        // largest stake so far\r\n        uint256 largestStake;\r\n        // time limit of this game\r\n        uint timeLimit;\r\n        // cool down time after the game ends\r\n        uint downTime;\r\n    }\r\n    /// @inheritdoc ITipState\r\n    Stat public override stat;\r\n\r\n    struct Data {\r\n        string foo;\r\n        address[] bar;\r\n        address ctrt;\r\n    }\r\n    Data public d;\r\n\r\n    /// @inheritdoc ITipState\r\n    mapping(address => uint256) public override stakes;\r\n\r\n    /// @inheritdoc ITipOwnerActions\r\n    uint256 public override donation;\r\n\r\n    // a list of participants that is used to delete the stake datas\r\n    address[] participants;\r\n\r\n    constructor() {\r\n        // initializes immutable variables\r\n        owner = msg.sender;\r\n        \r\n        goal = 1 ether;\r\n        defaultTimeLimit = 1 minutes; //1 hours;\r\n        defaultDuration = 1 minutes; //10 minutes;\r\n\r\n        // initializes state variables\r\n        initializeStat();\r\n        stat.isActive = false;\r\n        stat.downTime = block.timestamp;\r\n\r\n        // initializes owner variables\r\n        donation = 0;\r\n\r\n        d.foo = \"HELLO WORLD\";\r\n        d.bar.push(msg.sender);\r\n        d.ctrt = address(this);\r\n    }\r\n\r\n    /// @inheritdoc ITipActions\r\n    function participate() external override payable {\r\n        require(msg.value > 0, \"Participation fee is not enough.\");\r\n        require(stat.isActive, \"Start the game before you join.\");\r\n        require(block.timestamp < stat.timeLimit, \"Looks like game is already over now.\");\r\n        require(stat.balance < goal, \"balance has already reached the goal.\");\r\n\r\n        // the staker for first time is pushed to list.\r\n        if (stakes[msg.sender] == 0) {\r\n            participants.push(msg.sender);\r\n        }\r\n\r\n        stakes[msg.sender] += msg.value;\r\n        stat.balance += msg.value;\r\n        if (stakes[msg.sender] > stat.largestStake) {\r\n            stat.winner = msg.sender;\r\n            stat.largestStake = msg.value;\r\n        }\r\n\r\n        // end game when balance reaches goal.\r\n        if (stat.balance >= goal) {\r\n            stat.loser = msg.sender;\r\n            stat.isActive = false;\r\n            stat.downTime = block.timestamp + defaultDuration;\r\n        }\r\n\r\n        emit Participate();\r\n    }\r\n\r\n    /// @inheritdoc ITipActions\r\n    function getReward() external override {\r\n        if (stat.isActive) endGameForTimeout();\r\n\r\n        require(!stat.isActive, \"Game is still going.\");\r\n        require(block.timestamp < stat.downTime, \"You can get reward while showing result.\");\r\n        require(stakes[msg.sender] > 0, \"You have to stake if you wanna get loot.\");\r\n\r\n        uint256 loot = 0;\r\n        if (stat.isWinnerTakesAll) {\r\n            // Win-Type: The winner takes all.\r\n            require(msg.sender == stat.winner, \"The winner only receive loot.\");\r\n\r\n            initializeStakes(true);\r\n            loot = stat.balance;\r\n            stat.balance = 0;\r\n            stat.winner = address(0);\r\n        } else {\r\n            // Win-Type: The loser out.\r\n            require(msg.sender != stat.loser, \"Loser cannot receive loot.\");\r\n    \r\n            loot = stakes[msg.sender] + stakes[stat.loser] * (stakes[msg.sender] / stat.balance);\r\n        }\r\n        delete stakes[msg.sender];\r\n        payable(msg.sender).transfer(loot);\r\n\r\n        emit GetReward();\r\n    }\r\n\r\n    function endGameForTimeout() private {\r\n        require(stat.isActive, \"Game is not active.\");\r\n        require(block.timestamp > stat.timeLimit, \"Game is not over yet.\");\r\n        require(stat.balance < goal, \"Game should be end as loser out. Call the developer to fix this problem.\");\r\n        \r\n        stat.isActive = false;\r\n        stat.isWinnerTakesAll = true;\r\n        stat.downTime = block.timestamp + defaultDuration;\r\n    }\r\n\r\n    /// @inheritdoc ITipActions\r\n    function start() external override payable {\r\n        require(!stat.isActive, \"You have to wait until this game ends.\");\r\n        require(block.timestamp > stat.downTime, \"You have to wait couple of minutes to start game.\");\r\n\r\n        // initialize stakes and participants list.\r\n        initializeStakes(false);\r\n\r\n        // reset state and ready to start a game.\r\n        initializeStat();\r\n        stat.isActive = true;\r\n        stat.timeLimit = block.timestamp + defaultTimeLimit;\r\n\r\n        donation += msg.value;\r\n\r\n        emit Start();\r\n    }\r\n\r\n    /// @inheritdoc ITipOwnerActions\r\n    function withdraw() external override {\r\n        require(msg.sender == owner, \"You are not my Gosyujin-sama.\");\r\n\r\n        uint256 benefits = donation;\r\n        donation = 0;\r\n        payable(msg.sender).transfer(benefits);\r\n        \r\n        emit Withdraw();\r\n    }\r\n\r\n    /// @notice Initialize stat\r\n    function initializeStat() private {\r\n        stat.balance = 0;\r\n        stat.loser = address(0);\r\n        stat.winner = address(0);\r\n        stat.isWinnerTakesAll = false;\r\n        stat.largestStake = 0;\r\n    }\r\n\r\n    /// @notice Initalize stake and participants list.\r\n    /// Add donation if calcDonation is true.\r\n    /// @param calcDonation Add free eth as donation.\r\n    function initializeStakes(bool calcDonation) private {\r\n        for (uint256 i = 0; i < participants.length; i++) {\r\n            if (calcDonation && stakes[participants[i]] > 0) donation += stakes[participants[i]]; \r\n\r\n            delete stakes[participants[i]];\r\n        }\r\n        delete participants;\r\n    }\r\n}",
  "sourcePath": "C:\\Users\\kento.maruyama\\Desktop\\Activities\\10. Web3 and BlockChain Lab\\Tip\\src\\truffle\\contracts\\Tip.sol",
  "compiler": {
    "name": "solc",
    "version": "0.8.13+commit.abaa5c0e.Emscripten.clang"
  },
  "schemaVersion": "3.4.7",
  "updatedAt": "2022-05-31T13:05:25.257Z",
  "devdoc": {
    "kind": "dev",
    "methods": {},
    "stateVariables": {
      "stakes": {
        "params": {
          "participant": "The address of participant"
        }
      },
      "stat": {
        "return": "isActive true means game is active. false means in-active. balance The balance of this game. loser The loser address. winner The winner address. isWinnerTakesAll The win types. largestStake The lagest stake in this game. timeLimit Time Limit of this game. downTime Cool down time after game ends.",
        "returns": {
          "isActive": "true means game is active. false means in-active. balance The balance of this game. loser The loser address. winner The winner address. isWinnerTakesAll The win types. largestStake The lagest stake in this game. timeLimit Time Limit of this game. downTime Cool down time after game ends."
        }
      }
    },
    "version": 1
  },
  "userdoc": {
    "events": {
      "GetReward()": {
        "notice": "Emitted when user tries to get his share"
      },
      "Participate()": {
        "notice": "Emitted when user joins the game"
      },
      "Start()": {
        "notice": "Emitted by #start when game begins"
      },
      "Withdraw()": {
        "notice": "Emitted when contract owner withdraws the benefits"
      }
    },
    "kind": "user",
    "methods": {
      "defaultDuration()": {
        "notice": "Default duration for next game kicks"
      },
      "defaultTimeLimit()": {
        "notice": "Default time limit"
      },
      "donation()": {
        "notice": "Returns benefit of tip contract"
      },
      "getReward()": {
        "notice": "Gets reward allocated as your share after game done"
      },
      "goal()": {
        "notice": "Default loot size"
      },
      "owner()": {
        "notice": "The address who deployed this contract"
      },
      "participate()": {
        "notice": "Joins shuffle event"
      },
      "stakes(address)": {
        "notice": "Returns the stake of the participant"
      },
      "start()": {
        "notice": "Lets a game begin"
      },
      "stat()": {
        "notice": "Returns game stat"
      },
      "withdraw()": {
        "notice": "Only contract owner can call this to get benefits"
      }
    },
    "version": 1
  }
}